:102000002AEF3DF00902200001010080320904009E
:102010000002FFFFFF000705810240000F070502D5
:102020000240000F1201000200000040ADDE02007D
:1020300000000001000110034C0065006F006E00FD
:0620400069006E006F0054
:1079EC001200120033C06EFF1200000E316E000E3A
:1079FC00306E1200000E6D6E42EC3DF01200016E06
:107A0C00010E376E0150120001C030F002C031F08F
:107A1C00120003C001F004C002F00AEC3DF01200A9
:107A2C009FEC3DF002D03AEC3EF03704D8B4120093
:107A3C00FAD7000E726E016E000E04010401106F75
:107A4C000150FBEC3CF0120000EE1FF0190EEE6A38
:107A5C00E806FDE1000EF86E000169EF3DF0000E46
:107A6C00716E016E400E040104010C6F0150016E29
:107A7C00000E366E0150120035EC3DF01FEC3DF05F
:107A8C00026E000E376E025068966896689668967D
:107A9C001200016E400E04010401016F0150016ED1
:107AAC00880E04010401006F01501200016E000EDB
:107ABC0004010401056F0150016E800E04010401E4
:107ACC00046F0150120000EC3DF016EC3DF0939663
:107ADC008186790E046EEE0E036E0FEC3DF03AECDF
:107AEC003EF0FDD731503010D8B40CD001D80AD0AC
:107AFC000500FA6E3050FD6E3150FE6EF850FF6E80
:107B0C00FA5012008BEC3DF01200016E400E040195
:107B1C000401116F01500401040110BD03D0016E6A
:107B2C00C80E02D0016E880E04010401106F0150C2
:107B3C001200000E6D6E000E686E000E696E42EC47
:107B4C003DF0540E6F6E290E686E68CF69FFA0EC85
:107B5C003EF0080E6D6E6DAA1200FDD7016E400E40
:107B6C0004010401116F0150016EC00E04010401E7
:107B7C00126F0150016E050E04010401136F0150C8
:107B8C00016E880E04010401106F01501C0E726E00
:107B9C001200016E000E366E0150016E000E0401D3
:107BAC0004010D6F0150016E800E040104010E6F73
:107BBC000150016E050E040104010F6F0150016E9E
:107BCC00400E040104010C6F01501A0E716E12006C
:107BDC0019C01AF0D8901A32D8901A321AA003D0C1
:107BEC001A6E010E02D01A6E000E326E1A5005017A
:107BFC0005010139E842070B030B1B6E03D06BEC3C
:107C0C003EF004D01B50000AD8B4F9D7120001C0C2
:107C1C0009F002C00AF003C00BF004C00CF0F8CF5E
:107C2C000FF0F7CF0EF0F6CF0DF00BC0F8FF0AC037
:107C3C00F7FF09C0F6FF09D0090007C0D9FF08C03B
:107C4C00DAFFF5CFDFFF074A082A0506D8A006069B
:107C5C000528D8B40628D8A4EFD70FC0F8FF0EC05B
:107C6C00F7FF0DC0F6FF120068A004D042EC3DF007
:107C7C0068902AD068AA04D06CCF1CF0689A24D0E3
:107C8C0068A622D06CCF1EF068961E38E8461F0BF3
:107C9C000F0B1D6E0FD01EC019F0EEEC3DF014D082
:107CAC001EC001F0F6EC3CF00FD01EC002F078ECD8
:107CBC003DF00AD01D50000AD8B4EDD7010AD8B453
:107CCC00EFD7030AD8B4F1D712003204D8A404D0E9
:107CDC0004010401044103D0040104010041E84201
:107CEC003F0B0F0B186E1BD001D823D00500FA6E7A
:107CFC002E50FD6E2F50FE6EF850FF6EFA50120093
:107D0C0001D817D00500FA6E2A50FD6E2B50FE6E6E
:107D1C00F850FF6EFA50120010EC3FF00AD01850D9
:107D2C00010AD8B4E1D7080AD8B4EAD7040AD8B4FF
:107D3C00F3D71200000E2D6E000E2C6E160E706E08
:107D4C00016E400E04010401016F0150016E000E22
:107D5C0004010401026F0150016E050E04010401BF
:107D6C00036F0150016E880E04010401006F015075
:107D7C00016E000E04010401056F0150016E400EEE
:107D8C0004010401066F0150016E050E040104018B
:107D9C00076F0150016E000E04010401046F0150C5
:107DAC001200410E2C5C000E2D58D8B005D02CC002
:107DBC0012F02DC013F004D0000E136E400E126E94
:107DCC0013501210D8B412D028C001F029C002F000
:107DDC00036A046A12C005F013C006F00501050E13
:107DEC00086E0501400E076E0DEC3EF01250282671
:107DFC001350292212C005F40401040104AD03D070
:107E0C00116E880E02D0116EC80E04010401046FAD
:107E1C0011501200D5D0146E000E05010501406FF3
:107E2C001450146E000E05010501416F145014D04E
:107E3C000501050101511F0B146E156A1550000A3E
:107E4C00D8A40AD01450000AD8B4E5D7010AD8B483
:107E5C00E2D7030AD8B4DFD77A0E2B6EB80E2A6E8F
:107E6C007A0E2F6E9E0E2E6E146E020E04010401FD
:107E7C00056F1450146EC80E04010401046F1450E5
:107E8C006CD0200E296E240E286E000E176E120E6A
:107E9C000FD0200E296E040E286E000E176E200EC9
:107EAC0007D0200E296E360E286E000E176E100E9F
:107EBC00166E13D0050105010251010AD8B4F1D791
:107ECC000CD0050105010351010AD8B4DAD7030A15
:107EDC00D8B4DFD7010AD8B4EDD705010501065196
:107EEC00165C0501050107511758D8A005D006C529
:107EFC002CF007C52DF004D016C02CF017C02DF0B7
:107F0C0004010401049D7A0E2F6E9E0E2E6E7D0EC2
:107F1C002B6EAE0E2A6E146E400E04010401016F1E
:107F2C001450146EC80E04010401006F1450D7ECE9
:107F3C003EF05ED002C533F0790E2B6EF00E2A6E39
:107F4C0026D03704D8A409D0146E010E0501050102
:107F5C00406F1450146E010E89D7146E400E04013C
:107F6C000401016F1450146EC80E25D005010501D3
:107F7C000205D8A43DD07A0E2B6E0A0E2A6ECFECD9
:107F8C003DF0B4EC3DF003D0146E000EDFD7146E50
:107F9C00000E04010401056F1450146EC80E040188
:107FAC000401046F1450146E400E04010401016F9F
:107FBC001450146E880E04010401006F145018D074
:107FCC00050105010151000AD8B432D7050AD8B40D
:107FDC00B1D7030AD8B475D70E0AD8B4B2D7010AF0
:107FEC00D8B4C4D7030AD8B4CFD7010AD8B4CFD7E2
:047FFC006D9812006A
:00000001FF
